S02600004D616368696E65362D315F636F64655F56335F63616C6962726174696F6E2E73726563EC
S113000071C0000081C000007FC0000015C1000065
S113001027C1000079C0000077C0000075C000004F
S113002073C0000071C000006FC000006DC000000C
S11300306BC0000069C0000067C0000065C000001C
S113004063C0000061C00000AAC000005DC00000E1
S11300505BC0000059C0000057C0000056C000003B
S113006053C0000051C000004FC000004DC000004C
S11300704BC0000049C0000047C0000045C000005C
S113008043C0000041C000003FC000003DC000006C
S11300903BC0000039C0000037C0000035C000007C
S11300A033C0000031C000002FC000002DC000008C
S11300B02BC0000029C0000027C0000025C000009C
S11300C023C0000021C000001FC000001DC00000AC
S11300D01BC0000019C0000017C0000015C00000BC
S11300E013C0000011241FBECFEFD1E2DEBFCDBF8D
S11300F000E00CBF2FE1A0E0B2E001C01D92AF35DB
S1130100B207E1F752D2A2C47BCF1F920F920FB66F
S11301100F9211240F931F932F933F934F935F9349
S11301206F937F938F939F9300910702109108021E
S11301302091090230910A029FB7B901A8014F5FCB
S11301405F4F6F4F7F4F809106028D5F8093060251
S1130150809106028D3758F0809106028D57809366
S11301600602B901A8014E5F5F4F6F4F7F4F409366
S11301700702509308026093090270930A029FBF1A
S11301809F918F917F916F915F914F913F912F91AB
S11301901F910F910F900FBE0F901F9018951F92F3
S11301A00F920FB60F9211240BB60F922F933F9319
S11301B08F939F93EF93FF93CF93DF931F921F929D
S11301C0CDB7DEB72FB7809178008983809179000D
S11301D08A838A8190E0982F88273981832B909392
S11301E0010280930002E0910202F09103028091E7
S11301F0000290910102EE0FFF1FE55FFD4F918316
S113020080838091020290910302019690930302ED
S1130210809302022FBF0F900F90DF91CF91FF9137
S1130220EF919F918F913F912F910F900BBE0F9063
S11302300FBE0F901F9018951F920F920FB60F923A
S113024011248F939F9381E090E090930502809313
S113025004029F918F910F900FBE0F901F901895DD
S11302601F920F920FB60F9211242F938F939F9387
S113027082E090E0909305028093040285B181604E
S113028085B92FEF86E791E0215080409040E1F757
S113029000C0000085B115B82FEF86E791E021502A
S11302A080409040E1F700C000009F918F912F9112
S11302B00F900FBE0F901F90189583E084BD85BDED
S11302C0EEE6F0E080818160808378940895F8946C
S11302D014BC15BC10926E000895CF93CFB7F7DF0E
S11302E060910702709108028091090290910A02BC
S11302F0CFBF1092070210920802109209021092C6
S11303000A0210920602CF910895ECE7F0E0808192
S113031080648083EEE7F0E0808181608083EAE797
S1130320F0E087EA808385E080937B0093E09093FC
S11303308000A1E8B0E098E19C938C938FEF90E06B
S113034090938B0080938A001092850086B384601A
S113035086BBAFE6B0E08C9184608C937894808106
S1130360806480830895F894109280001092810034
S113037016BA10926F0010927A0010927B000895C2
S1130380AC0120E030E019C095B1916095B96FEFF0
S113039087E893E1615080409040E1F700C000009D
S11303A085B115B86FEF87E893E1615080409040C4
S11303B0E1F700C000002F5F3F4F2417350724F3F7
S11303C0089585B1806285B92FEF8DE292E22150C4
S11303D080409040E1F700C0000085B115B82FEFD0
S11303E08DE292E2215080409040E1F700C000008D
S11303F00895EF92FF921F93CF93DF9300D000D024
S1130400CDB7DEB7DC01CB01F42E10E011C0BC0186
S1130410CD012AE030E040E050E0F6D2DA01C90133
S1130420E1E0F0E0EC0FFD1FE10FF11D60831F5FC1
S11304300097A105B10559F720E030E01BC0EBE0BF
S1130440F1E08081816080834FEF85EA9EE0415036
S113045080409040E1F700C00000808110824FEF9F
S113046085EA9EE0415080409040E1F700C00000E2
S11304702F5F3F4F2330310514F3FF2029F0EBE0C9
S1130480F1E0808181608083E12CF12C0DC0E1E0FA
S1130490F0E0EC0FFD1FEE0DFF1D808190E070DF9A
S11304A090DF4FEFE41AF40A812F90E0E816F90682
S11304B074F326960FB6F894DEBF0FBECDBFDF915E
S11304C0CF911F91FF90EF900895CF93DF93F8940D
S11304D08091020290910302892B19F581E285B97A
S11304E02FEF89E698E1215080409040E1F700C069
S11304F0000015B82FEF89E698E121508040904024
S1130500E1F700C00000EACFFE01EE0FFF1FE55F38
S1130510FD4F6081718180E090E041E06ADF2196C7
S113052002C0C0E0D0E08091020290910302C8179B
S1130530D90750F3DF91CF91089540E05ACF089541
S113054020E620930101009751F4E0EBF0E02081D4
S11305501082E0EAF0E020811082109202018F3FC5
S1130560910521F480E6809302010895E0EBF0E028
S1130570208121602083208120622083E0EAF0E052
S113058020812160208320812860208326E020931D
S1130590B100E1EAF0E02081246020838093B4007C
S11305A09093AD008093AC000895F89484B1806179
S11305B084B9E1E0F1E0808180648083808180629D
S11305C080838DB188608DB983B3806283BBE4E09E
S11305D0F1E08081826080838EB188608EB984B3BB
S11305E0806284BBE5E0F1E08081826080831AB898
S11305F08CE08BB985B715BEEAE0F1E080818160BB
S11306008083EBE0F1E08081108280E090E01AC00A
S1130610EBE0F1E02081216020832FEF35EA4EE00A
S1130620215030404040E1F700C00000208110829A
S1130630EFEFF5EA2EE0E150F0402040E1F700C092
S113064000000196823091051CF384B1816084B965
S113065085B115B880E090E018C025B1216025B9B6
S11306603FEF45EAEEE031504040E040E1F700C0A2
S1130670000025B115B8FFEF25EA3EE0F150204017
S11306803040E1F700C000000196823091052CF360
S113069084B1806284B985B115B880E090E018C057
S11306A025B1206225B94FEFE5EAFEE04150E04074
S11306B0F040E1F700C0000025B115B82FEF35EA8E
S11306C04EE0215030404040E1F700C00000019668
S11306D0833091052CF38FEF93EDE0E3815090404C
S11306E0E040E1F700C00000109269008DB384601F
S11306F08DBB7894109205021092040211C085B14A
S1130700806185B987E893E10197F1F700C00000A3
S113071085B115B8E7E8F3E13197F1F700C00000BF
S11307208091040290910502019749F7F8948DB3E2
S11307301DBA8DB388608DBB789410920502109217
S1130740040203C085B1806285B98091040290914E
S113075005020297B9F7F8948DB31DBA8EB11EB88D
S1130760FFEF29E638E1F15020403040E1F700C0C6
S11307700000789440E050E023E030E02DC085B1E3
S1130780806185B980E090E007C0EFE1F3E0319744
S1130790F1F700C00000019682179307B4F34437C1
S11307A0F2E55F0714F026E030E085B115B880E08B
S11307B090E007C0EFE1F3E03197F1F700C00000EB
S11307C0019682179307B4F34137F8E65F0714F0F4
S11307D02CE230E04F5F5F4F413F8DE658077CF2DB
S11307E0F8949FEFE9E6F8E19150E040F040E1F73A
S11307F000C000008EB188608EB98DB388608DBB57
S11308007894109205021092040203C085B18062AC
S113081085B980910402909105020297B9F7F89482
S113082085B115B84ADD80E890E08ADE2FEF39E61D
S113083048E1215030404040E1F700C000001092F0
S113084005021092040203C085B1806285B98091CB
S11308500402909105020297B9F73FDD6093571F98
S11308607093581F8093591F90935A1F85B115B8E0
S113087024DD4BDD85B1806285B9109205021092AA
S1130880040229C085B1806185B920E030E006C04A
S113089085E38A95F1F700002F5F3F4F80910002B6
S11308A0909101028A5B9F4F2817390788F385B11D
S11308B015B820E030E006C095E39A95F1F7000002
S11308C02F5F3F4F80910002909101028A5B9F4FFE
S11308D02817390788F38091040290910502029742
S11308E089F685B115B83FDDF8DC60935B1F709322
S11308F05C1F80935D1F90935E1F80E090E020DE7C
S113090020E030E019C085B1816085B9EFEFF5EAE8
S11309104EE0E150F0404040E1F700C0000085B1F6
S113092015B88FEF95EAEEE081509040E040E1F792
S113093000C000002F5F3F4F2530310524F3789429
S1130940109205021092040203C085B1806285B939
S113095080910402909105020297B9F7F89460918E
S1130960571F7091581F8091591F90915A1FE5DDB0
S113097020E030E019C085B1806285B9FFEF49E617
S113098088E1F15040408040E1F700C0000085B1AB
S113099015B89FEFE9E6F8E19150E040F040E1F747
S11309A000C000002F5F3F4F2530310524F37894B9
S11309B0109205021092040203C085B1806285B9C9
S11309C080910402909105020297B9F7F89460911E
S11309D05B1F70915C1F80915D1F90915E1FADDD68
S11309E07894109205021092040203C085B18062CB
S11309F085B980910402909105020297B9F7F894A1
S1130A0064DD80E090E00895A1E21A2EAA1BBB1BCE
S1130A10FD010DC0AA1FBB1FEE1FFF1FA217B307C6
S1130A20E407F50720F0A21BB30BE40BF50B661FDC
S1130A30771F881F991F1A9469F7609570958095A0
S1130A4090959B01AC01BD01CF010895F894FFCFAF
S9030000FC
